:1000000009C016C040C028C013C012C011C010C023
:100010000FC00EC011241FBECFE9CDBF20E0A0E667
:10002000B0E001C01D92A336B207E1F741D0AFC0E6
:10003000E7CF98E0C19887FDC19AC29AC298880F0D
:100040009150C1F70895CF93C62FC398F2DF8C2F3C
:10005000F0DFC39ACF9108951F920F920FB60F92BF
:1000600011248F939F9380916100909162009395EA
:1000700090936200809361009F918F910F900FBECB
:100080000F901F9018951F920F920FB60F92112488
:100090008F93B49B03C081E083BF04C013BE81E093
:1000A000809360008F910F900FBE0F901F90189556
:1000B00087B38E6087BBC39A6FE089E0C4DF6FE0CF
:1000C0008AE0C1DF63E08BE0BEDF61E08CE0BBDF94
:1000D00060E08FE0B8DFB89AAC9A1FBC82E089BFBD
:1000E000789487E0E82EF12C9AE0C92ED12C10925A
:1000F0006000109262001092610012BE8BB78062A5
:100100008BBFC09A84E08A95F1F7C0988091600017
:100110008823E1F38BB78F7D8BBF22B7809161007D
:1001200090916200820F911D909362008093610014
:100130008091610090916200B70115D0C1E0CB01C0
:10014000B60111D0162FD72F682F8C2F7CDFCF5FF1
:10015000612F7D2FC53099F78FE59AEE0197F1F762
:1001600000C00000C4CFAA1BBB1B51E107C0AA1FDF
:10017000BB1FA617B70710F0A61BB70B881F991F48
:100180005A95A9F780959095BC01CD010895F894F2
:02019000FFCF9F
:00000001FF
